{
  "contractName": "Faucet",
  "abi": [
    {
      "inputs": [],
      "name": "numOfFunders",
      "outputs": [
        {
          "internalType": "uint256",
          "name": "",
          "type": "uint256"
        }
      ],
      "stateMutability": "view",
      "type": "function"
    },
    {
      "inputs": [],
      "name": "owner",
      "outputs": [
        {
          "internalType": "address",
          "name": "",
          "type": "address"
        }
      ],
      "stateMutability": "view",
      "type": "function"
    },
    {
      "inputs": [],
      "name": "testNum",
      "outputs": [
        {
          "internalType": "uint256",
          "name": "",
          "type": "uint256"
        }
      ],
      "stateMutability": "view",
      "type": "function"
    },
    {
      "stateMutability": "payable",
      "type": "receive"
    },
    {
      "inputs": [],
      "name": "emitLog",
      "outputs": [
        {
          "internalType": "bytes32",
          "name": "",
          "type": "bytes32"
        }
      ],
      "stateMutability": "pure",
      "type": "function"
    },
    {
      "inputs": [],
      "name": "addFunds",
      "outputs": [],
      "stateMutability": "payable",
      "type": "function"
    },
    {
      "inputs": [],
      "name": "test1",
      "outputs": [],
      "stateMutability": "nonpayable",
      "type": "function"
    },
    {
      "inputs": [],
      "name": "test2",
      "outputs": [],
      "stateMutability": "nonpayable",
      "type": "function"
    },
    {
      "inputs": [],
      "name": "getAllFunders",
      "outputs": [
        {
          "internalType": "address[]",
          "name": "",
          "type": "address[]"
        }
      ],
      "stateMutability": "view",
      "type": "function"
    },
    {
      "inputs": [
        {
          "internalType": "uint8",
          "name": "index",
          "type": "uint8"
        }
      ],
      "name": "getFunderAtIndex",
      "outputs": [
        {
          "internalType": "address",
          "name": "",
          "type": "address"
        }
      ],
      "stateMutability": "view",
      "type": "function"
    },
    {
      "inputs": [
        {
          "internalType": "uint256",
          "name": "withdrawAmount",
          "type": "uint256"
        }
      ],
      "name": "withdraw",
      "outputs": [],
      "stateMutability": "nonpayable",
      "type": "function"
    }
  ],
  "bytecode": "0x608060405234801561001057600080fd5b50336000806101000a81548173ffffffffffffffffffffffffffffffffffffffff021916908373ffffffffffffffffffffffffffffffffffffffff1602179055506103e8600181905550610b09806100696000396000f3fe6080604052600436106100955760003560e01c80638da5cb5b116100595780638da5cb5b14610160578063a26759cb1461018b578063ae28f1ed14610195578063af7f2c9b146101c0578063f42c13bf146101eb5761009c565b80630a93cf33146100a15780632e1a7d4d146100de57806366e41cb7146101075780636b59084d1461011e5780636fbbb55d146101355761009c565b3661009c57005b600080fd5b3480156100ad57600080fd5b506100c860048036038101906100c3919061071e565b610216565b6040516100d5919061083f565b60405180910390f35b3480156100ea57600080fd5b50610105600480360381019061010091906106f5565b610256565b005b34801561011357600080fd5b5061011c6102ed565b005b34801561012a57600080fd5b5061013361037d565b005b34801561014157600080fd5b5061014a61040d565b604051610157919061085a565b60405180910390f35b34801561016c57600080fd5b50610175610553565b604051610182919061083f565b60405180910390f35b610193610577565b005b3480156101a157600080fd5b506101aa610697565b6040516101b791906108d7565b60405180910390f35b3480156101cc57600080fd5b506101d561069d565b6040516101e291906108d7565b60405180910390f35b3480156101f757600080fd5b506102006106a3565b60405161020d919061087c565b60405180910390f35b6000600460008360ff16815260200190815260200160002060009054906101000a900473ffffffffffffffffffffffffffffffffffffffff169050919050565b8067016345785d8a00008111156102a2576040517f08c379a0000000000000000000000000000000000000000000000000000000008152600401610299906108b7565b60405180910390fd5b3373ffffffffffffffffffffffffffffffffffffffff166108fc839081150290604051600060405180830381858888f193505050501580156102e8573d6000803e3d6000fd5b505050565b60008054906101000a900473ffffffffffffffffffffffffffffffffffffffff1673ffffffffffffffffffffffffffffffffffffffff163373ffffffffffffffffffffffffffffffffffffffff161461037b576040517f08c379a000000000000000000000000000000000000000000000000000000000815260040161037290610897565b60405180910390fd5b565b60008054906101000a900473ffffffffffffffffffffffffffffffffffffffff1673ffffffffffffffffffffffffffffffffffffffff163373ffffffffffffffffffffffffffffffffffffffff161461040b576040517f08c379a000000000000000000000000000000000000000000000000000000000815260040161040290610897565b60405180910390fd5b565b6060600060025467ffffffffffffffff811115610453577f4e487b7100000000000000000000000000000000000000000000000000000000600052604160045260246000fd5b6040519080825280602002602001820160405280156104815781602001602082028036833780820191505090505b50905060005b60025481101561054b576004600082815260200190815260200160002060009054906101000a900473ffffffffffffffffffffffffffffffffffffffff168282815181106104fe577f4e487b7100000000000000000000000000000000000000000000000000000000600052603260045260246000fd5b602002602001019073ffffffffffffffffffffffffffffffffffffffff16908173ffffffffffffffffffffffffffffffffffffffff168152505080806105439061098f565b915050610487565b508091505090565b60008054906101000a900473ffffffffffffffffffffffffffffffffffffffff1681565b6000339050600360008273ffffffffffffffffffffffffffffffffffffffff1673ffffffffffffffffffffffffffffffffffffffff16815260200190815260200160002060009054906101000a900460ff16610694576000600260008154809291906105e29061098f565b9190505590506001600360008473ffffffffffffffffffffffffffffffffffffffff1673ffffffffffffffffffffffffffffffffffffffff16815260200190815260200160002060006101000a81548160ff021916908315150217905550816004600083815260200190815260200160002060006101000a81548173ffffffffffffffffffffffffffffffffffffffff021916908373ffffffffffffffffffffffffffffffffffffffff160217905550505b50565b60015481565b60025481565b60007f48656c6c6f20576f726c64000000000000000000000000000000000000000000905090565b6000813590506106da81610aa5565b92915050565b6000813590506106ef81610abc565b92915050565b60006020828403121561070757600080fd5b6000610715848285016106cb565b91505092915050565b60006020828403121561073057600080fd5b600061073e848285016106e0565b91505092915050565b6000610753838361075f565b60208301905092915050565b6107688161093c565b82525050565b6107778161093c565b82525050565b600061078882610902565b610792818561091a565b935061079d836108f2565b8060005b838110156107ce5781516107b58882610747565b97506107c08361090d565b9250506001810190506107a1565b5085935050505092915050565b6107e48161094e565b82525050565b60006107f760218361092b565b915061080282610a07565b604082019050919050565b600061081a60238361092b565b915061082582610a56565b604082019050919050565b61083981610978565b82525050565b6000602082019050610854600083018461076e565b92915050565b60006020820190508181036000830152610874818461077d565b905092915050565b600060208201905061089160008301846107db565b92915050565b600060208201905081810360008301526108b0816107ea565b9050919050565b600060208201905081810360008301526108d08161080d565b9050919050565b60006020820190506108ec6000830184610830565b92915050565b6000819050602082019050919050565b600081519050919050565b6000602082019050919050565b600082825260208201905092915050565b600082825260208201905092915050565b600061094782610958565b9050919050565b6000819050919050565b600073ffffffffffffffffffffffffffffffffffffffff82169050919050565b6000819050919050565b600060ff82169050919050565b600061099a82610978565b91507fffffffffffffffffffffffffffffffffffffffffffffffffffffffffffffffff8214156109cd576109cc6109d8565b5b600182019050919050565b7f4e487b7100000000000000000000000000000000000000000000000000000000600052601160045260246000fd5b7f4f6e6c79206f776e65722063616e2063616c6c20746869732066756e6374696f60008201527f6e00000000000000000000000000000000000000000000000000000000000000602082015250565b7f43616e6e6f74207769746864726177206d6f7265207468616e20302e3120657460008201527f6865720000000000000000000000000000000000000000000000000000000000602082015250565b610aae81610978565b8114610ab957600080fd5b50565b610ac581610982565b8114610ad057600080fd5b5056fea264697066735822122088160acd25ad702f6cbb2c25c10fbb38ba4bd35ab4e54e6908dd35dee993bff464736f6c63430008040033",
  "immutableReferences": {},
  "source": "// SPDX-License-Identifier: MIT\r\npragma solidity >=0.4.22 <0.9.0;\r\nimport \"./Owned.sol\";\r\nimport \"./Logger.sol\";\r\nimport \"./IFaucet.sol\";\r\n\r\ncontract Faucet is Owned,Logger,IFaucet{\r\nuint public numOfFunders;\r\n\r\nmapping(address=>bool) private funders;\r\nmapping(uint=>address) private lutFunders;\r\n\r\nmodifier limitWithdraw(uint withdrawAmount){\r\n    require(\r\n      withdrawAmount<=100000000000000000,\r\n      \"Cannot withdraw more than 0.1 ether\"\r\n      );\r\n      _;\r\n}\r\n\r\nreceive()external payable{}\r\n\r\nfunction emitLog() public override pure returns(bytes32){\r\n  return \"Hello World\";\r\n}\r\n\r\nfunction addFunds() external override payable{\r\n    address funder=msg.sender;\r\nif(!funders[funder]){\r\nuint index= numOfFunders++;\r\nfunders[funder]=true;\r\nlutFunders[index]=funder;\r\n  }\r\n}\r\n\r\nfunction test1() external onlyOwner {\r\n  //some managing stuff that only admin should have access to\r\n}\r\n\r\nfunction test2() external onlyOwner {\r\n  //some managing stuff that only admin should have access to\r\n}\r\n\r\n\r\n\r\nfunction getAllFunders()external view returns(address[] memory)\r\n{\r\n  address[] memory _funders= new address[](numOfFunders);\r\nfor(uint i=0;i<numOfFunders;i++){\r\n_funders[i]=lutFunders[i];\r\n}\r\nreturn _funders;\r\n\r\n}\r\n\r\n  function getFunderAtIndex(uint8 index) external view returns(address) {\r\n    return lutFunders[index];\r\n  }\r\nfunction withdraw(uint withdrawAmount)external override limitWithdraw(withdrawAmount){\r\n  payable(msg.sender).transfer(withdrawAmount);\r\n }\r\n\r\n}\r\n\r\n//const instance=await Faucet.deployed()\r\n\r\n//instance.addFunds({from:accounts[0],value:\"2000000\"})\r\n//instance.addFunds({from:accounts[1],value:\"2000000\"})\r\n\r\n//instance.withdraw(\"10000000000000\",{from:accounts[0]})\r\n\r\n//instance.getAllFunders()\r\n//instance.getFunderAtIndex(0)",
  "sourcePath": "C:\\Users\\Bogdan\\Desktop\\Javascript\\MarketSmartContracts\\faucet\\contracts\\FaucetContract.sol",
  "compiler": {
    "name": "solc",
    "version": "0.8.4+commit.c7e474f2.Emscripten.clang"
  },
  "schemaVersion": "3.4.3",
  "updatedAt": "2021-12-07T11:52:53.303Z",
  "devdoc": {
    "kind": "dev",
    "methods": {},
    "version": 1
  },
  "userdoc": {
    "kind": "user",
    "methods": {},
    "version": 1
  }
}